:020000040800F2
:10000000000002207D070008E5060008ED06000854
:10001000F5060008FD0600080507000800000000BE
:100020000000000000000000000000000D070008B4
:100030001B07000800000000290700083707000818
:10004000CD070008CD070008CD070008CD07000840
:10005000CD070008CD070008CD070008CD07000830
:10006000CD070008CD070008CD070008CD07000820
:10007000CD070008CD070008CD070008CD07000810
:10008000CD070008CD070008CD070008CD07000800
:10009000CD070008CD070008CD070008CD070008F0
:1000A000CD070008CD070008CD070008CD070008E0
:1000B000CD070008CD070008CD070008CD070008D0
:1000C000CD070008CD070008CD070008CD070008C0
:1000D000CD070008CD070008CD070008CD070008B0
:1000E000CD070008CD070008CD070008CD070008A0
:1000F000CD070008CD070008CD070008CD07000890
:10010000CD070008CD070008CD070008CD0700087F
:10011000CD070008CD070008CD070008CD0700086F
:10012000CD070008CD070008CD070008CD0700085F
:10013000CD070008CD070008CD070008CD0700084F
:10014000CD070008CD070008CD07000845070008C7
:10015000CD070008CD070008CD070008CD0700082F
:10016000CD070008CD070008CD070008CD0700081F
:10017000CD070008CD070008CD07000800000000EB
:08018000CD070008CD070008BF
:1001880010B5054C237833B9044B13B10448AFF3C9
:1001980000800123237010BD1C0100200000000016
:1001A800A86C000808B5034B1BB103490348AFF31B
:1001B800008008BD0000000020010020A86C000895
:1001C80053B94AB9002908BF00281CBF4FF0FF31B6
:1001D8004FF0FF3000F06AB9ADF1080C6DE904CEBC
:1001E80000F006F8DDF804E0DDE9022304B070470A
:1001F8002DE9F047089D0C46002B4ED194468C45BE
:100208008646B2FA82F262D94AB1C2F1200391401D
:1002180020FA03F30CFA02FC194300FA02FE4FEA33
:100228001C471FFA8CF6B1FBF7F44FEA1E4307FB95
:10023800141143EA014304FB06F199420AD91CEB65
:10024800030304F1FF3080F01281994240F20F81DC
:10025800023C6344591A1FFA8EF3B1FBF7F007FB0F
:10026800101143EA014300FB06F69E420AD91CEB33
:10027800030300F1FF3180F0FC809E4240F2F980D8
:10028800634402389B1B40EA044000211DB1D3405F
:100298000022C5E90032BDE8F0878B4205D90DB1CF
:1002A800C5E9000100210846F5E7B3FA83F1002902
:1002B80046D1A34202D39042C0F0F080861A64EB84
:1002C80003030120002DE6D0C5E90063E3E7002A17
:1002D80040F09080A1EB0C044FEA1C481FFA8CF701
:1002E8000121B4FBF8F64FEA1E4308FB164443EA23
:1002F800044307FB06F0984208D91CEB030306F1F8
:10030800FF3402D2984200F2CD8026461C1A1FFA0A
:100318008EF3B4FBF8F008FB104443EA044300FBF7
:1003280007F79F4208D91CEB030300F1FF3402D200
:100338009F4200F2B0802046DB1B40EA0640A5E75A
:10034800C1F120068B4022FA06F71F4320FA06FC6B
:1003580004FA01F343EA0C03F44000FA01F8380CFC
:100368004FEA1349B4FBF0FE1FFA87FC00FB1E445A
:1003780049EA04440EFB0CF9A14502FA01F20AD934
:100388003C190EF1FF3A80F08480A14540F281804B
:10039800AEF1020E3C44A4EB09041FFA83F9B4FB46
:1003A800F0F300FB134449EA044403FB0CFCA445A6
:1003B80007D93C1903F1FF3067D2A44565D9023B40
:1003C8003C4443EA0E40A0FB0293A4EB0C049C427D
:1003D800CE469C4651D34ED055B1B8EB0E0364EBD4
:1003E8000C0404FA06F6CB401E43CC40C5E9006471
:1003F800002150E7C2F1200320FA03F10CFA02FCB5
:1004080024FA03F394400C434FEA1C4800FA02FE16
:100418001FFA8CF7B3FBF8F008FB1031230C43EA02
:10042800014300FB07F1994208D91CEB030300F1D3
:10043800FF362CD299422AD9023863445B1AA4B2F7
:10044800B3FBF8F108FB113344EA034401FB07F35B
:10045800A34208D91CEB040401F1FF3613D2A342CE
:1004680011D902396444E41A41EA004139E70446E3
:10047800F0E6084606E7C845AED2B9EB020E63EBD4
:10048800070C0138A8E73146EDE7034699E73046FF
:10049800D4E7D6467FE7634402384DE7064623464D
:1004A80008460FE7023E634430E700BF704700BFCD
:1004B80080B500AF00F088F900F018F800F080F877
:1004C80005F0A8FE01224FF40041064800F0C0FCE8
:1004D8004FF4FA6000F0EAF91E21034805F058FFCE
:1004E80000BFF5E7000C02400000002080B594B082
:1004F80000AF07F1200330220021184606F0A4FBC4
:1005080007F10C0300221A605A609A60DA601A61D7
:100518000023BB60284B1B6C274A43F080531364AD
:10052800254B1B6C03F08053BB60BB6800237B60CA
:10053800224B1B68214A43F4804313601F4B1B68FE
:1005480003F480437B607B6801233B624FF4803374
:100558007B620223BB634FF48003FB6304233B6489
:10056800A8237B640223BB640723FB6407F12003F1
:10057800184601F0D7FE0346002B01D000F080F8A2
:100588000F23FB6002233B6100237B614FF4A053E0
:10059800BB614FF48053FB6107F10C03052118463A
:1005A80002F038F90346002B01D000F069F800BFCB
:1005B8005037BD4680BD00BF003802400070004083
:1005C80080B58AB000AF07F1140300221A605A60A0
:1005D8009A60DA601A6100233B61274B1B6B264A3D
:1005E80043F004031363244B1B6B03F004033B61C8
:1005F8003B690023FB60204B1B6B1F4A43F08003C1
:1006080013631D4B1B6B03F08003FB60FB68002327
:10061800BB60194B1B6B184A43F008031363164B56
:100628001B6B03F00803BB60BB6800237B60124BA5
:100638001B6B114A43F0010313630F4B1B6B03F051
:1006480001037B607B6800224FF400410B4800F0F7
:10065800FFFB4FF400437B610123BB610023FB6177
:1006680000233B6207F114031946044800F054FACA
:1006780000BF2837BD4680BD00380240000C02404C
:1006880080B400AF72B600BF00BFFDE780B582B08E
:1006980000AF00237B60104B5B6C0F4A43F4804330
:1006A80053640D4B5B6C03F480437B607B680023D1
:1006B8003B60094B1B6C084A43F080531364064B9C
:1006C8001B6C03F080533B603B68072000F0E2F9A5
:1006D80000BF0837BD4680BD0038024080B400AF77
:1006E80000BFFDE780B400AF00BFFDE780B400AFF6
:1006F80000BFFDE780B400AF00BFFDE780B400AFE6
:1007080000BFFDE780B400AF00BFBD465DF8047BC5
:10071800704780B400AF00BFBD465DF8047B7047EA
:1007280080B400AF00BFBD465DF8047B704780B55C
:1007380000AF00F09BF800BF80BD000080B500AF9F
:10074800024800F0E2FC00BF80BD00BF1C1600207C
:1007580080B400AF064BD3F88830054A43F47003E1
:10076800C2F8883000BFBD465DF8047B704700BF03
:1007780000ED00E0DFF834D0FFF7EAFF0C480D4940
:100788000D4A002302E0D458C4500433C4188C42E4
:10079800F9D30A4A0A4C002301E013600432A2424A
:1007A800FBD306F059FAFFF783FE704700000220DA
:1007B800000000201C010020246D00081C010020FE
:1007C800201D0020FEE7000080B500AF0E4B1B681F
:1007D8000D4A43F4007313600B4B1B680A4A43F439
:1007E80080631360084B1B68074A43F480731360E7
:1007F800032000F04FF9002000F008F8FFF746FF4B
:100808000023184680BD00BF003C024080B582B07E
:1008180000AF7860124B1A68124B1B7819464FF4D8
:100828007A73B3FBF1F3B2FBF3F3184600F067F900
:100838000346002B01D001230EE07B680F2B0AD85A
:10084800002279684FF0FF3000F02FF9064A7B68E4
:100858001360002300E0012318460837BD4680BD19
:1008680020000020280000202400002080B400AFD1
:10087800064B1B781A46064B1B681344044A136040
:1008880000BFBD465DF8047B704700BF280000200C
:100898003801002080B400AF034B1B681846BD46E2
:1008A8005DF8047B704700BF3801002080B584B034
:1008B80000AF7860FFF7EEFFB8607B68FB60FB680D
:1008C800B3F1FF3F05D00A4B1B781A46FB68134467
:1008D800FB6000BFFFF7DEFF0246BB68D31AFA6869
:1008E8009A42F7D800BF00BF1037BD4680BD00BF91
:1008F8002800002080B485B000AF78607B6803F0E2
:100908000703FB600C4BDB68BB60BA684FF6FF035C
:100918001340BB60FB681A02BB68134343F0BF6314
:1009280043F40033BB60044ABB68D36000BF14378C
:10093800BD465DF8047B704700ED00E080B400AF71
:10094800044BDB681B0A03F007031846BD465DF835
:10095800047B704700ED00E080B483B000AF03462D
:10096800FB7197F90730002B0BDBFB7903F01F02B3
:10097800074997F907305B09012000FA02F241F8AC
:10098800232000BF0C37BD465DF8047B704700BFCD
:1009980000E100E080B483B000AF03463960FB712A
:1009A80097F90730002B0ADB3B68DAB20C4997F954
:1009B80007301201D2B20B4483F800230AE03B68E7
:1009C800DAB20849FB7903F00F03043B1201D2B2F3
:1009D8000B441A7600BF0C37BD465DF8047B7047A0
:1009E80000E100E000ED00E080B489B000AFF860FD
:1009F800B9607A60FB6803F00703FB61FB69C3F128
:100A08000703042B28BF0423BB61FB690433062BAF
:100A180002D9FB69033B00E000237B614FF0FF3202
:100A2800BB6902FA03F3DA43BB681A407B699A4050
:100A38004FF0FF317B6901FA03F3D9437B680B4020
:100A4800134318462437BD465DF8047B7047000001
:100A580080B582B000AF78607B68013BB3F1807FDE
:100A680001D301230FE00A4A7B68013B53600F2141
:100A78004FF0FF30FFF78EFF054B00229A60044BC2
:100A880007221A60002318460837BD4680BD00BFFC
:100A980010E000E080B582B000AF78607868FFF7BA
:100AA80029FF00BF0837BD4680BD80B586B000AFBE
:100AB8000346B9607A60FB7300237B61FFF73EFF52
:100AC80078617A68B9687869FFF78EFF024697F906
:100AD8000F3011461846FFF75DFF00BF1837BD46B7
:100AE80080BD80B582B000AF0346FB7197F907302F
:100AF8001846FFF731FF00BF0837BD4680BD80B5F7
:100B080082B000AF78607868FFF7A2FF0346184606
:100B18000837BD4680BD000080B489B000AF78605A
:100B2800396000237B6100233B610023BB61002304
:100B3800FB616BE10122FB6902FA03F37B613B680D
:100B48001B687A6913403B613A697B699A4240F0B5
:100B58005A813B685B6803F00303012B05D03B68AF
:100B68005B6803F00303022B30D17B689B68BB6191
:100B7800FB695B00032202FA03F3DB43BA69134003
:100B8800BB613B68DA68FB695B0002FA03F3BA6988
:100B98001343BB617B68BA699A607B685B68BB6119
:100BA8000122FB6902FA03F3DB43BA691340BB6114
:100BB8003B685B681B0903F00102FB6902FA03F357
:100BC800BA691343BB617B68BA695A603B685B6862
:100BD80003F00303032B17D07B68DB68BB61FB6959
:100BE8005B00032202FA03F3DB43BA691340BB61DB
:100BF8003B689A68FB695B0002FA03F3BA6913431E
:100C0800BB617B68BA69DA603B685B6803F0030321
:100C1800022B23D1FB69DA087B68083253F82230AB
:100C2800BB61FB6903F007039B000F2202FA03F381
:100C3800DB43BA691340BB613B681A69FB6903F07F
:100C480007039B0002FA03F3BA691343BB61FB690C
:100C5800DA087B680832B96943F822107B681B6898
:100C6800BB61FB695B00032202FA03F3DB43BA6949
:100C78001340BB613B685B6803F00302FB695B00E0
:100C880002FA03F3BA691343BB617B68BA691A6055
:100C98003B685B6803F44033002B00F0B48000230A
:100CA800FB60604B5B6C5F4A43F4804353645D4B6D
:100CB8005B6C03F48043FB60FB685B4AFB699B0841
:100CC800023352F82330BB61FB6903F003039B0036
:100CD8000F2202FA03F3DB43BA691340BB617B6856
:100CE800524A93422BD07B68514A934225D07B6865
:100CF800504A93421FD07B684F4A934219D07B6871
:100D08004E4A934213D07B684D4A93420DD07B687C
:100D18004C4A934207D07B684B4A934201D1072340
:100D28000EE008230CE006230AE0052308E004236C
:100D380006E0032304E0022302E0012300E000238D
:100D4800FA6902F0030292009340BA691343BB6147
:100D58003549FB699B080233BA6941F823203B4BAC
:100D68009B68BB613B69DB43BA691340BB613B6865
:100D78005B6803F48013002B03D0BA693B69134303
:100D8800BB61324ABB699360304BDB68BB613B692E
:100D9800DB43BA691340BB613B685B6803F400132B
:100DA800002B03D0BA693B691343BB61274ABB696F
:100DB800D360264B5B68BB613B69DB43BA69134070
:100DC800BB613B685B6803F40033002B03D0BA694E
:100DD8003B691343BB611D4ABB6953601B4B1B68CE
:100DE800BB613B69DB43BA691340BB613B685B6825
:100DF80003F48033002B03D0BA693B691343BB610A
:100E0800124ABB691360FB690133FB61FB690F2B55
:100E18007FF690AE00BF00BF2437BD465DF8047B67
:100E2800704700BF0038024000380140000002400F
:100E38000004024000080240000C0240001002407A
:100E48000014024000180240001C0240003C01400F
:100E580080B483B000AF78600B467B8013467B700C
:100E68007B78002B03D07A887B689A6103E07B88C3
:100E78001A047B689A6100BF0C37BD465DF8047B95
:100E8800704780B586B002AF78607B68002B01D1CF
:100E9800012301E17B681B68BB607B6893F895348C
:100EA800DBB2002B06D17B68002283F89424786893
:100EB80005F0B6FB7B68032283F89524BB68B3F181
:100EC800A04F02D17B6800229A717B681B68184684
:100ED80001F0AFFF7B6818687B681A7C8DF80020EA
:100EE80004330ECB01F08EFE0346002B05D07B6841
:100EF800022283F895240123CEE07B681B68002139
:100F0800184601F0A7FF0346002B05D07B68022294
:100F180083F895240123BFE00023FB734AE0FA7BA2
:100F280079681346DB0013449B000B4415330122F8
:100F38001A70FA7B79681346DB0013449B000B4454
:100F48001433FA7B1A70FA7BFB7B98B279681346E4
:100F5800DB0013449B000B442E3302461A80FA7BB5
:100F680079681346DB0013449B000B4418330022B6
:100F78001A70FA7B79681346DB0013449B000B4414
:100F88001C3300221A60FA7B79681346DB0013448D
:100F98009B000B44203300221A60FA7B79681346C1
:100FA800DB0013449B000B44243300221A60FB7BB4
:100FB8000133FB737B681B79FA7B9A42AFD300231A
:100FC800FB7344E0FA7B79681346DB0013449B000B
:100FD8000B4403F2552300221A70FA7B79681346F2
:100FE800DB0013449B000B4403F51573FA7B1A705E
:100FF800FA7B79681346DB0013449B000B4403F526
:10100800167300221A70FA7B79681346DB001344C2
:101018009B000B4403F5177300221A60FA7B79686A
:101028001346DB0013449B000B4403F5187300229E
:101038001A60FA7B79681346DB0013449B000B4463
:1010480003F5197300221A60FB7B0133FB737B687D
:101058001B79FA7B9A42B5D37B6818687B681A7C3F
:101068008DF8002004330ECB01F040FF0346002B1F
:1010780005D07B68022283F8952401230CE07B6865
:1010880000225A747B68012283F895247B681B68C8
:10109800184602F084FF002318461037BD4680BD6D
:1010A80080B584B000AF78607B681B68FB607B68A4
:1010B80093F89434012B01D1022322E07B680122AA
:1010C80083F89424FB68DB6803F04003002B09D005
:1010D8007B685B7B012B05D1FB689B6B43F48032FB
:1010E800FB689A637B681B68184601F091FE7B6871
:1010F8001B68184602F032FF7B68002283F89424AC
:10110800002318461037BD4680BD90B58DB000AF9E
:1011180078607B681B683B623B6AFB617B681B6885
:10112800184602F0F0FF0346002B40F08C847B68E1
:101138001B68184602F054FF0346002B00F0828417
:10114800FB6903F500639B681B0AC3F30D027B6808
:10115800C3F8D4247B681B68184602F041FF034695
:1011680003F00203022B07D17B681B685A697B686E
:101178001B6802F002025A617B681B68184602F07D
:101188002FFF034603F01003102B61D17B681B6807
:101198009A697B681B6822F010029A613B6A1B6A95
:1011A800BB61BB6903F00F021346DB0013449B00CD
:1011B80003F514737A68134404337B61BB695B0CD1
:1011C80003F00F03022B24D1BA6947F6F0731340DA
:1011D800002B35D07B69D968BB691B099BB2C3F367
:1011E8000A039BB21A46386A02F066FD7B69DA6820
:1011F800BB691B09C3F30A031A447B69DA607B697C
:101208005A69BB691B09C3F30A031A447B695A610B
:1012180016E0BB695B0C03F00F03062B10D17B684B
:1012280003F29C4308221946386A02F045FD7B699F
:101238005A69BB691B09C3F30A031A447B695A61DB
:101248007B681B689A697B681B6842F010029A6188
:101258007B681B68184602F0C3FE034603F40023AC
:10126800B3F5002F40F0A78000237B627B681B68E2
:10127800184602F0C8FEB86299E0BB6A03F00103A1
:10128800002B00F08E807B681B687A6AD2B2114608
:10129800184602F0ECFE38613B6903F00103002BAD
:1012A8000CD07B6A5A01FB69134403F530631A4674
:1012B80001239360796A786800F0A2FE3B6903F025
:1012C8000803002B0CD07B6A5A01FB69134403F511
:1012D80030631A4608239360796A786800F078FFCB
:1012E8003B6903F01003002B08D07B6A5A01FB69A5
:1012F800134403F530631A46102393603B6903F0E7
:101308000203002B30D03B6A5B6903F08003802B1B
:1013180009D1FB6903F500635B68FA6902F50062AD
:1013280043F4806353607A6A1346DB0013449B00DE
:1013380003F514737A68134404337B617B69DB78A3
:10134800012B08D17B690022DA707B6ADBB219466F
:10135800786805F06BFA7B6A5A01FB69134403F558
:1013680030631A46022393603B6903F02003002B85
:1013780008D07B6A5A01FB69134403F530631A46A7
:10138800202393603B6903F40053002B09D07B6A48
:101398005A01FB69134403F530631A464FF40053AE
:1013A80093607B6A01337B62BB6A5B08BB62BB6A82
:1013B800002B7FF462AF7B681B68184602F010FEB2
:1013C800034603F48023B3F5802F40F0DB807B686D
:1013D8001B68184602F031FEB86200237B62CDE03C
:1013E800BB6A03F00103002B00F0C2807B681B6816
:1013F8007A6AD2B21146184602F057FE38613B6944
:1014080003F00103002B57D07B6A03F00F0301227E
:1014180002FA03F3FB60FB6903F500635A6BFB6890
:10142800DB43F96901F5006113404B637B6A5A019C
:10143800FB69134403F510631A46012393607B6824
:101448009B79012B32D179687A6A1346DB00134401
:101458009B000B442033196878687A6A1346DB00CE
:1014680013449B0003441C331B68194478687A6A48
:101478001346DB0013449B000344203319607B6A46
:10148800002B13D179687A6A1346DB0013449B005A
:101498000B4424331B68002B08D17B6818687B68D1
:1014A80003F29C431A46012102F05EFE7B6ADBB21E
:1014B8001946786805F035F93B6903F00803002BF5
:1014C80008D07B6A5A01FB69134403F510631A4676
:1014D800082393603B6903F01003002B08D07B6A54
:1014E8005A01FB69134403F510631A4610239360ED
:1014F8003B6903F04003002B08D07B6A5A01FB6963
:10150800134403F510631A46402393603B6903F0C4
:101518000203002B23D0796A386A01F04BFE7A6AFD
:101528001346DB0013449B0010337A6813440433DA
:101538007B617B69DB78012B08D17B690022DA703B
:101548007B6ADBB21946786805F082F97B6A5A0132
:10155800FB69134403F510631A46022393603B6941
:1015680003F08003002B03D0796A786800F0BBFC95
:101578007B6A01337B62BB6A5B08BB62BB6A002B78
:101588007FF42EAF7B681B68184602F029FD0346DE
:1015980003F00043B3F1004F22D1FB6903F5006368
:1015A8005B68FA6902F5006223F0010353607B6807
:1015B80093F8CC34012B08D17B68002283F8CC2423
:1015C8000021786800F0A2FE02E0786805F020F9B2
:1015D8007B681B685A697B681B6802F000425A6185
:1015E8007B681B68184602F0FBFC034603F40063A3
:1015F800B3F5006F12D1FB6903F500639B6803F034
:101608000103012B02D1786805F0DCF87B681B68C0
:101618005A697B681B6802F400625A617B681B6820
:10162800184602F0DDFC034603F48053B3F5805FEF
:1016380040F0B780FB6903F500635B68FA6902F55F
:10164800006223F0010353607B681B681021184671
:1016580001F0B0FD0023FB6246E0FB6A5A01FB691A
:10166800134403F510631A464FF67F339360FB6A01
:101678005A01FB69134403F510631B68FA6A5101A8
:10168800FA690A4402F5106223F400131360FB6A36
:101698005A01FB69134403F530631A464FF67F334A
:1016A8009360FB6A5A01FB69134403F530631B68B6
:1016B800FA6A5101FA690A4402F5306223F4001308
:1016C8001360FB6A5A01FB69134403F530631B6816
:1016D800FA6A5101FA690A4402F5306243F000637C
:1016E8001360FB6A0133FB627B681B791A46FB6A4D
:1016F8009342B2D3FB6903F50063DB69FA6902F52B
:10170800006243F00113D3617B68DB7B002B16D0AA
:10171800FB6903F50063D3F88430FA6902F50062C7
:1017280043F00B03C2F88430FB6903F500635B6C7C
:10173800FA6902F5006243F00B03536415E0FB6994
:1017480003F500635B69FA6902F5006243F400532C
:1017580043F02B035361FB6903F500631B69FA69C6
:1017680002F5006243F00B031361FB6903F50063A4
:101778001B68FA6902F5006223F4FE6313607B6854
:1017880018687B6899797B6803F29C431A4602F0D3
:10179800EBFC7B681B685A697B681B6802F4805203
:1017A8005A617B681B68184602F01AFC034603F46A
:1017B8000053B3F5005F23D17B681B68184602F01D
:1017C800B0FC7B681B68184601F06DFD03461A469D
:1017D8007B68DA717B681C6801F008FA01467B684F
:1017E800DB791A46204601F071FA786804F0C1FFE7
:1017F8007B681B685A697B681B6802F400525A614F
:101808007B681B68184602F0EBFB034603F00803ED
:10181800082B0AD1786804F09EFF7B681B685A6918
:101828007B681B6802F008025A617B681B681846CF
:1018380002F0D6FB034603F08003802B23D13B6ADA
:101848009B6923F080023B6A9A6101237B6214E062
:1018580079687A6A1346DB0013449B000B4403F251
:1018680057231B78012B05D17B6ADBB219467868B0
:1018780000F008FB7B6A01337B627B681B791A46A0
:101888007B6A9342E4D37B681B68184602F0A8FB86
:10189800034603F48013B3F5801F3CD101237B6218
:1018A8002BE07B6A5A01FB69134403F510631B683C
:1018B800BB6179687A6A1346DB0013449B000B44CA
:1018C80018331B78012B15D1BB69002B12DA796804
:1018D8007A6A1346DB0013449B000B44173301223A
:1018E8001A707B6ADBB263F07F03DBB21946786853
:1018F80000F0C8FA7B6A01337B627B681B791A4661
:101908007B6A9342CDD37B681B685A697B681B68E6
:1019180002F480125A617B681B68184602F060FB6B
:10192800034603F40013B3F5001F56D101237B626D
:1019380045E07B6A5A01FB69134403F530631B6871
:10194800BB6179687A6A1346DB0013449B000B4439
:1019580003F516731B78012B2ED1BB69002B2BDAEC
:10196800BB6903F480327B68D3F8D43403F00103F5
:101978009A4221D179687A6A1346DB0013449B00A6
:101988000B4403F2572301221A703B6A9B6943F008
:1019980080023B6A9A613B6A5B6903F08003002B13
:1019A8000AD1FB6903F500635B68FA6902F5006216
:1019B80043F40073536008E07B6A01337B627B6801
:1019C8001B791A467B6A9342B3D37B681B685A69B2
:1019D8007B681B6802F400125A617B681B68184612
:1019E80002F0FEFA034603F08043B3F1804F0AD1B8
:1019F800786804F03FFF7B681B685A697B681B683E
:101A080002F080425A617B681B68184602F0E8FAC7
:101A1800034603F00403042B15D17B681B685B683D
:101A2800BB61BB6903F00403002B02D0786804F0A3
:101A38002FFF7B681B6859687B681B68BA690A4373
:101A48005A6000E000BF3437BD4690BD80B582B013
:101A580000AF78600B46FB707B6893F89434012BD9
:101A680001D1022312E07B68012283F894247B6869
:101A7800FA785A747B681B68FA781146184602F09F
:101A880047FA7B68002283F8942400231846083715
:101A9800BD4680BD80B584B000AF78600846114669
:101AA8001A460346FB700B463B801346BB70002367
:101AB800FB7297F90330002B0FDAFB7803F00F0263
:101AC8001346DB0013449B0010337A681344043335
:101AD800FB60FB6801225A700FE0FB7803F00F02ED
:101AE8001346DB0013449B0003F514737A68134410
:101AF8000433FB60FB6800225A70FB7803F00F0385
:101B0800DAB2FB681A703A88FB689A60FB68BA78A0
:101B18001A71FB685B78002B04D0FB681B781A46A7
:101B2800FB685A83BB78022B02D1FB6800225A71EA
:101B38007B6893F89434012B01D102230EE07B6873
:101B4800012283F894247B681B68F968184601F021
:101B5800CFFB7B68002283F89424FB7A1846103761
:101B6800BD4680BD80B584B000AF78600B46FB7081
:101B780097F90330002B0FDAFB7803F00F021346B6
:101B8800DB0013449B0010337A6813440433FB6072
:101B9800FB6801225A700FE0FB7803F00F0213462E
:101BA800DB0013449B0003F514737A681344043371
:101BB800FB60FB6800225A70FB7803F00F03DAB26F
:101BC800FB681A707B6893F89434012B01D10223C7
:101BD8000EE07B68012283F894247B681B68F9680F
:101BE800184601F00DFC7B68002283F8942400233A
:101BF80018461037BD4680BD80B586B000AFF86086
:101C08007A603B600B46FB72FB7A03F00F021346C7
:101C1800DB0013449B0003F51473FA681344043380
:101C28007B617B697A68DA607B693A681A617B69EB
:101C380000225A617B6900225A70FB7A03F00F0375
:101C4800DAB27B691A70FB689B79012B02D17A683A
:101C58007B69DA61FB681868FB689B791A467969C1
:101C680001F0AAFC002318461837BD4680BD80B491
:101C780083B000AF78600B46FB70FB7803F00F026F
:101C880079681346DB0013449B000B4403F51A7371
:101C98001B6818460C37BD465DF8047B704780B555
:101CA80086B000AFF8607A603B600B46FB72FB7A47
:101CB80003F00F021346DB0013449B001033FA684D
:101CC800134404337B617B697A68DA607B693A681C
:101CD8001A617B6900225A617B6901225A70FB7A7A
:101CE80003F00F03DAB27B691A70FB689B79012B4A
:101CF80002D17A687B69DA61FB681868FB689B79AE
:101D08001A46796901F058FC002318461837BD4671
:101D180080BD80B584B000AF78600B46FB70FB785F
:101D280003F00F037A681279934201D901234FE037
:101D380097F90330002B0FDAFB7803F00F021346F4
:101D4800DB0013449B0010337A6813440433FB60B0
:101D5800FB6801225A700DE0FA781346DB00134441
:101D68009B0003F514737A6813440433FB60FB6823
:101D780000225A70FB6801229A70FB7803F00F0367
:101D8800DAB2FB681A707B6893F89434012B01D19E
:101D980002231DE07B68012283F894247B681B687A
:101DA800F968184601F0E0FFFB7803F00F03002BF9
:101DB80009D17B6818687B6899797B6803F29C4332
:101DC8001A4602F0D1F97B68002283F89424002394
:101DD80018461037BD4680BD80B584B000AF786026
:101DE8000B46FB70FB7803F00F037A681279934275
:101DF80001D9012342E097F90330002B0FDAFB7871
:101E080003F00F021346DB0013449B0010337A687B
:101E180013440433FB60FB6801225A700FE0FB781F
:101E280003F00F021346DB0013449B0003F5147301
:101E38007A6813440433FB60FB6800225A70FB681D
:101E480000229A70FB7803F00F03DAB2FB681A706D
:101E58007B6893F89434012B01D102230EE07B6850
:101E6800012283F894247B681B68F968184601F0FE
:101E7800E9FF7B68002283F8942400231846103772
:101E8800BD4680BD80B584B000AF78600B46FB705E
:101E980097F90330002B0CDAFB7803F00F02134696
:101EA800DB0013449B0010337A6813440433FB604F
:101EB8000CE0FB7803F00F021346DB0013449B0091
:101EC80003F514737A6813440433FB607B681B685A
:101ED800F968184601F008FE0346FB72FB7A1846BB
:101EE8001037BD4680BD80B58AB002AF78603960D2
:101EF8007B681B687B617B693B613A681346DB0042
:101F080013449B0010337A6813440433FB60FB6866
:101F18005A69FB681B699A4201D901236BE0FB6887
:101F28001A69FB685B69D31AFB61FB689B68FA69ED
:101F38009A4202D9FB689B68FB61FB6903339B08E3
:101F4800BB612AE0FB681A69FB685B69D31AFB610D
:101F5800FB689B68FA699A4202D9FB689B68FB6137
:101F6800FB6903339B08BB61FB68D9683B68DAB23D
:101F7800FB6998B27B689B7900930346786901F006
:101F88005DFEFB68DA68FB691A44FB68DA60FB6887
:101F98005A69FB691A44FB685A613B685A013B69F4
:101FA800134403F510639B699BB2BA699A4209D836
:101FB800FB685A69FB681B699A4203D2FB681B6974
:101FC800002BBFD1FB681A69FB685B699A4211D87C
:101FD8003B6803F00F03012202FA03F3BB603B697D
:101FE80003F500635A6BBB68DB43396901F500618F
:101FF80013404B63002318462037BD4680BD0000C0
:1020080080B588B000AF786039607B681B68FB6179
:10201800FB69BB61FB693C3304331B687B613B682C
:102028005A01BB69134403F530639B683B617B68C5
:102038009B79012B7BD13B6903F00803002B15D05A
:102048007B69614A934240F2B9803B6903F40043DB
:10205800002B00F0B3803B685A01BB69134403F5B9
:1020680030631A464FF400439360A7E03B6903F0DE
:102078002003002B09D03B685A01BB69134403F5C0
:1020880030631A462023936098E03B6903F02803E5
:10209800002B40F093807B694B4A93420FD93B69F0
:1020A80003F40043002B0AD03B685A01BB69134470
:1020B80003F530631A464FF4004393607EE03A68B4
:1020C8001346DB0013449B0003F514737A6813442A
:1020D8000433FB60FB681A6A3B685901BB690B440F
:1020E80003F530631B69C3F31203D21AFB685A6104
:1020F8003B68002B14D1FB681B69002B09D17B6856
:1021080018687B6803F29C431A46012102F02CF8F8
:1021180006E0FB68DA68FB685B691A44FB68DA600A
:102128003B68DBB21946786804F0E0FA46E07B6960
:10213800264A934224D13B6903F40043002B0AD07A
:102148003B685A01BB69134403F530631A464FF4E0
:102158000043936032E03B6903F02003002B08D072
:102168003B685A01BB69134403F530631A462023C0
:1021780093603B68DBB21946786804F0B7FA1DE053
:102188003B68002B14D179683A681346DB00134486
:102198009B000B4403F519731B68002B08D17B685F
:1021A80018687B6803F29C431A46002101F0DCFFA3
:1021B8003B68DBB21946786804F098FA00231846A1
:1021C8002037BD4680BD00BF0A30544F0A31544FF6
:1021D80080B586B000AF786039607B681B687B612A
:1021E8007B693B617B693C3304331B68FB603B685C
:1021F8005A013B69134403F530639B68BB60FB6875
:10220800154A93420ED9BB6803F40043002B09D04A
:102218003B685A013B69134403F530631A464FF48F
:1022280000439360786804F04FFAFB680A4A9342C7
:102238000CD97B689B79012B08D17B6818687B686F
:1022480003F29C431A46012101F08EFF0023184631
:102258001837BD4680BD00BF0A30544F80B485B0E2
:1022680000AF78600B46FB7013463B807B681B68A9
:102278005B6ABB60FB78002B07D13B8819047B683D
:102288001B68BA680A439A6228E07B681B689B6AE5
:102298001B0CBA681344BB600023FB730DE07B681A
:1022A8001A68FB7B40339B0013445B681B0CBA68BD
:1022B8001344BB60FB7B0133FB73FA7BFB78013B68
:1022C8009A42ECD33B8818047B681968FB78013B79
:1022D800BA68024340339B000B445A6000231846F7
:1022E8001437BD465DF8047B704780B483B000AFF7
:1022F80078600B467B807B681B687A885A6200236B
:1023080018460C37BD465DF8047B704780B483B02F
:1023180000AF78600B46FB7000BF0C37BD465DF818
:10232800047B704780B586B000AF78607B68002B6F
:1023380001D1012367E27B681B6803F00103002BCE
:1023480075D0884B9B6803F00C03042B0CD0854B8D
:102358009B6803F00C03082B12D1824B5B6803F4D3
:102368008003B3F5800F0BD17E4B1B6803F4003359
:10237800002B5BD07B685B68002B57D1012342E2BE
:102388007B685B68B3F5803F06D1764B1B68754A5E
:1023980043F4803313601DE07B685B68B3F5A02FBE
:1023A8000CD1704B1B686F4A43F4802313606D4B4C
:1023B8001B686C4A43F4803313600BE0694B1B685D
:1023C800684A23F480331360664B1B68654A23F41C
:1023D800802313607B685B68002B13D0FEF75AFAE2
:1023E800386108E0FEF756FA02463B69D31A642BB7
:1023F80001D9032307E25B4B1B6803F40033002B6E
:10240800F0D014E0FEF746FA386108E0FEF742FA29
:1024180002463B69D31A642B01D90323F3E1514BDC
:102428001B6803F40033002BF0D100E000BF7B6889
:102438001B6803F00203002B63D04A4B9B6803F030
:102448000C03002B0BD0474B9B6803F00C03082BA5
:102458001CD1444B5B6803F48003002B16D1414B1D
:102468001B6803F00203002B05D07B68DB68012B97
:1024780001D00123C7E13B4B1B6823F0F8027B68BE
:102488001B69DB00374913430B603AE07B68DB6864
:10249800002B20D0344B01221A60FEF7FBF938617B
:1024A80008E0FEF7F7F902463B69D31A022B01D977
:1024B8000323A8E12B4B1B6803F00203002BF0D089
:1024C800284B1B6823F0F8027B681B69DB00254951
:1024D80013430B6015E0244B00221A60FEF7DAF96B
:1024E800386108E0FEF7D6F902463B69D31A022B99
:1024F80001D9032387E11B4B1B6803F00203002B60
:10250800F0D17B681B6803F00803002B36D07B688A
:102518005B69002B16D0154B01221A60FEF7BAF939
:10252800386108E0FEF7B6F902463B69D31A022B78
:1025380001D9032367E10B4B5B6F03F00203002B08
:10254800F0D01BE0094B00221A60FEF7A3F93861AE
:102558000EE0FEF79FF902463B69D31A022B07D912
:10256800032350E10038024000004742800E4742F2
:10257800884B5B6F03F00203002BEAD17B681B6872
:1025880003F00403002B00F097800023FB75814BB8
:102598001B6C03F08053002B0FD10023BB607D4BD5
:1025A8001B6C7C4A43F0805313647A4B1B6C03F01A
:1025B8008053BB60BB680123FB75774B1B6803F432
:1025C8008073002B18D1744B1B68734A43F48073D3
:1025D8001360FEF75FF9386108E0FEF75BF9024621
:1025E8003B69D31A022B01D903230CE16A4B1B6800
:1025F80003F48073002BF0D07B689B68012B06D115
:10260800644B1B6F634A43F0010313671CE07B684C
:102618009B68052B0CD15F4B1B6F5E4A43F004038C
:1026280013675C4B1B6F5B4A43F0010313670BE0B6
:10263800584B1B6F574A23F001031367554B1B6F09
:10264800544A23F0040313677B689B68002B15D05A
:10265800FEF720F938610AE0FEF71CF902463B69EB
:10266800D31A41F28832934201D90323CBE0494B74
:102678001B6F03F00203002BEED014E0FEF70AF9FB
:1026880038610AE0FEF706F902463B69D31A41F2BF
:102698008832934201D90323B5E03E4B1B6F03F008
:1026A8000203002BEED1FB7D012B05D1394B1B6CAE
:1026B800384A23F0805313647B689B69002B00F031
:1026C800A180344B9B6803F00C03082B5CD07B681B
:1026D8009B69022B41D1314B00221A60FEF7DAF8D0
:1026E800386108E0FEF7D6F802463B69D31A022B98
:1026F80001D9032387E0274B1B6803F00073002BE5
:10270800F0D17B68DA697B681B6A1A437B685B6A6D
:102718009B011A437B689B6A5B08013B1B041A43B5
:102728007B68DB6A1B061B4913434B601B4B01226A
:102738001A60FEF7AFF8386108E0FEF7ABF802461A
:102748003B69D31A022B01D903235CE0114B1B68A8
:1027580003F00073002BF0D054E0104B00221A60F5
:10276800FEF798F8386108E0FEF794F802463B69EE
:10277800D31A022B01D9032345E0064B1B6803F04B
:102788000073002BF0D13DE07B689B69012B07D1DA
:10279800012338E0003802400070004060004742E2
:1027A8001B4B5B68FB607B689B69012B28D0FB682F
:1027B80003F480027B68DB699A4221D1FB6803F04D
:1027C8003F027B681B6A9A421AD1FA6847F6C073BF
:1027D80013407A68526A9201934211D1FB6803F45C
:1027E80040327B689B6A5B08013B1B049A4207D115
:1027F800FB6803F070627B68DB6A1B069A4201D0B3
:10280800012300E0002318461837BD4680BD00BFED
:102818000038024080B584B000AF786039607B68CA
:10282800002B01D10123CCE0684B1B6803F00703A0
:102838003A689A420CD9654B3A68D2B21A70634B1F
:102848001B6803F007033A689A4201D00123B8E0F5
:102858007B681B6803F00203002B20D07B681B6891
:1028680003F00403002B05D0594B9B68584A43F4E6
:10287800E05393607B681B6803F00803002B05D0C6
:10288800534B9B68524A43F460439360504B9B6898
:1028980023F0F0027B689B684D4913438B607B688B
:1028A8001B6803F00103002B44D07B685B68012B95
:1028B80007D1474B1B6803F40033002B19D10123C0
:1028C8007FE07B685B68022B03D07B685B68032B27
:1028D80007D13F4B1B6803F00073002B09D101237C
:1028E8006FE03B4B1B6803F00203002B01D101236F
:1028F80067E0374B9B6823F003027B685B683449C9
:1029080013438B60FDF7C6FFF8600AE0FDF7C2FFCE
:102918000246FB68D31A41F28832934201D9032355
:102928004FE02B4B9B6803F00C027B685B689B00B5
:102938009A42EBD1254B1B6803F007033A689A4289
:102948000CD2224B3A68D2B21A70204B1B6803F0A3
:1029580007033A689A4201D0012332E07B681B687A
:1029680003F00403002B08D0194B9B6823F4E052B2
:102978007B68DB68164913438B607B681B6803F030
:102988000803002B09D0124B9B6823F460427B6834
:102998001B69DB000E4913438B6000F021F80246E7
:1029A8000B4B9B681B0903F00F030A49CB5C22FA07
:1029B80003F3094A1360094B1B681846FDF726FF05
:1029C800002318461037BD4680BD00BF003C0240BA
:1029D80000380240046D0008200000202400002078
:1029E8002DE9B04F94B000AF00237B640023FB6453
:1029F80000233B640023BB64794B9B6803F00C0302
:102A0800082B0DD0082B00F2E180002B02D0042BFC
:102A180003D0DBE0734BBB64DBE0734BBB64D8E0F3
:102A28006F4B5B6803F03F037B646D4B5B6803F49B
:102A38008003002B63D06A4B5B689B090022BB6351
:102A4800FA63BB6BC3F308033B6300237B63D7E9DB
:102A58000C4522462B464FF000004FF0000159016B
:102A680041EAD261500102460B462146511A3961AA
:102A7800294663EB01037B614FF000024FF000032E
:102A8800D7E904AB59468B01514643EA9163514655
:102A98008A015146B2EB0108594663EB01094FF030
:102AA80000024FF000034FEAC90343EA58734FEAA4
:102AB800C80290469946234618EB0303BB602B4691
:102AC80049EB0303FB604FF000024FF00003D7E926
:102AD800024529464B02214643EAD15321464A0280
:102AE800104619467B6C0022BB62FA62D7E90A23BA
:102AF800FDF766FB02460B461346FB6458E0384B6D
:102B08005B689B09002218461146C0F308033B6224
:102B180000237B62D7E9088942464B464FF0000004
:102B28004FF00001590141EAD261500102460B46BB
:102B38004146B2EB010A494663EB010B4FF0000234
:102B48004FF000034FEA8B1343EA9A634FEA8A1265
:102B5800B2EB0A0463EB0B054FF000024FF00003E1
:102B6800EB0043EA5473E20014461D464346E3185B
:102B78003B604B4645EB03037B604FF000024FF090
:102B88000003D7E9004529468B02214643EA9153C1
:102B980021468A02104619467B6C0022BB61FA6105
:102BA800D7E90623FDF70CFB02460B461346FB64E8
:102BB8000B4B5B681B0C03F0030301335B003B64A6
:102BC800FA6C3B6CB2FBF3F3BB6402E0054BBB64ED
:102BD80000BFBB6C18465037BD46BDE8B08F00BF7C
:102BE800003802400024F40000127A0080B400AFDC
:102BF800034B1B681846BD465DF8047B704700BF51
:102C08002000002084B080B584B000AF786007F160
:102C18001C0080E80E0097F82130012B23D17B6837
:102C28009B6B23F480327B689A637B68DB6823F4B0
:102C3800840323F040037A68D3607B68DB6823F45D
:102C480040127B68DA6097F82830012B05D17B6841
:102C5800DB6843F480127B68DA60786801F0E2FA96
:102C68000346FB731BE07B68DB6843F040027B682C
:102C7800DA60786801F0D6FA0346FB7397F82530D6
:102C8800002B06D17B689B6B43F480327B689A6388
:102C980005E07B689B6B23F480327B689A63BB7F7B
:102CA800012B0BD17B689B6843F006027B689A6016
:102CB8007B689B6843F020027B689A60FB7B184620
:102CC8001037BD46BDE8804004B0704780B487B077
:102CD80000AFF860B9601346FB71FB79022B65D130
:102CE800BB68414A934206D9BB68404A934202D224
:102CF8000F237B6162E0BB683C4A934206D3BB6802
:102D08003B4A934202D20E237B6157E0BB68384AA4
:102D1800934206D3BB68374A934202D20D237B61A4
:102D28004CE0BB68334A934206D3BB68324A9342AD
:102D380002D80C237B6141E0BB682F4A934206D935
:102D4800BB682E4A934202D80B237B6136E0BB68EE
:102D58002A4A934206D9BB68294A934202D80A23D1
:102D68007B612BE0BB68264A934206D9BB68254A9B
:102D7800934202D209237B6120E0BB68214A934237
:102D880006D3BB68204A934202D808237B6115E02A
:102D9800BB681D4A934206D9BB681C4A934202D2BB
:102DA80007237B610AE006237B6107E0FB79002BA0
:102DB80002D109237B6101E009237B61FB68DB68A1
:102DC80023F47052FB68DA60FB68DA687B699B025F
:102DD80003F470531A43FB68DA60002318461C3763
:102DE800BD465DF8047B7047BFACD800C0E1E40085
:102DF8000024F400807306019F491A01FF2C310159
:102E08003FA44C0100366E011FABA6010048E80143
:102E180080B483B000AF78607B689B6843F00102A0
:102E28007B689A60002318460C37BD465DF8047B22
:102E3800704780B483B000AF78607B689B6823F0EC
:102E480001027B689A60002318460C37BD465DF87E
:102E5800047B704780B584B000AF78600B46FB7088
:102E68000023FB607B68DB6823F0C0427B68DA6084
:102E7800FB78012B15D17B68DB6843F000527B6837
:102E8800DA600A20FDF712FDFB680A33FB607868F8
:102E980001F039F90346012B1ED0FB68C72BF0D986
:102EA8001AE0FB78002B15D17B68DB6843F0804281
:102EB8007B68DA600A20FDF7F9FCFB680A33FB60DF
:102EC800786801F020F90346002B05D0FB68C72B72
:102ED800F0D901E0012305E0FB68C82B01D10123EB
:102EE80000E0002318461037BD4680BD84B080B589
:102EF80086B000AF786007F1240080E80E00002358
:102F0800FB757B68FB6000233B6109E07A683B69DD
:102F180040339B00134400225A603B6901333B61F4
:102F28003B690E2BF2D997F82E30002B1CD1FB6889
:102F380003F500635B68FA6802F5006243F0020378
:102F480053607B689B6B43F400127B689A637B68D1
:102F58009B6B23F400227B689A637B689B6B23F44A
:102F680080227B689A630BE07B689B6B23F40012DA
:102F78007B689A637B689B6B43F400227B689A6347
:102F8800FB6803F560631A460023136097F829303D
:102F9800012B0DD197F82730002B04D10021786838
:102FA80000F068F908E00121786800F063F903E0AF
:102FB8000321786800F05EF91021786800F0FAF8CB
:102FC8000346002B01D00123FB75786800F024F933
:102FD8000346002B01D00123FB75FB6803F5006352
:102FE8001A4600231361FB6803F500631A460023A1
:102FF8005361FB6803F500631A460023D36100237D
:103008003B6143E03B695A01FB68134403F51063D5
:103018001B6803F00043B3F1004F18D13B69002B44
:103028000AD13B695A01FB68134403F510631A4639
:103038004FF00063136013E03B695A01FB681344C7
:1030480003F510631A464FF09043136008E03B699C
:103058005A01FB68134403F510631A4600231360F2
:103068003B695A01FB68134403F510631A460023B1
:1030780013613B695A01FB68134403F510631A4650
:103088004FF67F3393603B6901333B6197F82430F7
:103098001A463B699342B5D300233B6143E03B6941
:1030A8005A01FB68134403F530631B6803F00043BF
:1030B800B3F1004F18D13B69002B0AD13B695A0183
:1030C800FB68134403F530631A464FF0006313603E
:1030D80013E03B695A01FB68134403F530631A4651
:1030E8004FF09043136008E03B695A01FB681344B2
:1030F80003F530631A46002313603B695A01FB68E5
:10310800134403F530631A46002313613B695A01DF
:10311800FB68134403F530631A464FF67F33936018
:103128003B6901333B6197F824301A463B69934267
:10313800B5D3FB6803F500631B69FA6802F5006202
:1031480023F4807313617B6800229A617B686FF0B7
:1031580080425A6197F82630002B05D17B689B691D
:1031680043F010027B689A617B689A69104B13439D
:103178007A68936197F82A30002B05D07B689B69A1
:1031880043F008027B689A6197F82E30012B07D12B
:103198007B689B6943F0804343F004037A6893613A
:1031A800FB7D18461837BD46BDE8804004B070471F
:1031B80000383C8080B485B000AF78603960002367
:1031C800FB60FB680133FB60FB68B3F1706F01D9EA
:1031D80003231BE07B681B69002BF2DA0023FB60EA
:1031E8003B689B0143F020027B681A61FB6801334E
:1031F800FB60FB68B3F1706F01D9032306E07B68BD
:103208001B6903F02003202BF0D000231846143745
:10321800BD465DF8047B704780B485B000AF786028
:103228000023FB60FB680133FB60FB68B3F1706F40
:1032380001D9032318E07B681B69002BF2DA00230D
:10324800FB607B6810221A61FB680133FB60FB6836
:10325800B3F1706F01D9032306E07B681B6903F0A3
:103268001003102BF0D0002318461437BD465DF824
:10327800047B704780B485B000AF78600B46FB7064
:103288007B68FB60FB6803F500631A68FB78F968E4
:1032980001F5006113430B60002318461437BD463F
:1032A8005DF8047B704780B487B000AF78607B68B6
:1032B8003B613B6903F500639B6803F00603FB6011
:1032C800FB68002B02D10023FB750AE0FB68022B88
:1032D80002D0FB68062B02D10223FB7501E00F2305
:1032E800FB75FB7D18461C37BD465DF8047B7047AF
:1032F80080B485B000AF786039607B68FB603B685C
:103308001B78BB603B685B78012B3AD1FB6803F5FF
:103318000063DA693B681B7803F00F03012101FAA7
:1033280003F39BB2F96801F500611343CB61BB68F5
:103338005A01FB68134403F510631B6803F4004348
:10334800002B55D1BB685A01FB68134403F5106381
:103358001A683B689B68C3F30A013B681B799B04A6
:103368001943BB689B050B431343BA685101FA68BC
:103378000A4402F5106243F0805343F4004313609B
:1033880036E0FB6803F50063DA693B681B7803F0F5
:103398000F03012101FA03F31B04F96801F5006129
:1033A8001343CB61BB685A01FB68134403F53063D0
:1033B8001B6803F40043002B1AD1BB685A01FB6851
:1033C800134403F530631A683B689B68C3F30A012A
:1033D8003B681B799B040B431343BA685101FA6895
:1033E8000A4402F5306243F0805343F4004313600B
:1033F800002318461437BD465DF8047B704700006B
:1034080080B485B000AF786039607B68FB603B684A
:103418001B78BB603B685B78012B61D1BB685A01A4
:10342800FB68134403F510631B6803F00043B3F112
:10343800004F1FD1BB685A01FB68134403F51063A2
:103448001B68BA685101FA680A4402F5106243F031
:1034580000631360BB685A01FB68134403F51063EB
:103468001B68BA685101FA680A4402F5106243F011
:1034780080431360FB6803F50063DA6B3B681B78D5
:1034880003F00F03012101FA03F39BB2DB43F96850
:1034980001F500611340CB63FB6803F50063DA694B
:1034A8003B681B7803F00F03012101FA03F39BB279
:1034B800DB43F96801F500611340CB61BB685A0131
:1034C800FB68134403F510631A68BB685901FB686D
:1034D8000B4403F510631946354B13400B6060E04D
:1034E800BB685A01FB68134403F530631B6803F09B
:1034F8000043B3F1004F1FD1BB685A01FB68134466
:1035080003F530631B68BA685101FA680A4402F58A
:10351800306243F000631360BB685A01FB681344D0
:1035280003F530631B68BA685101FA680A4402F56A
:10353800306243F080431360FB6803F50063DA6B85
:103548003B681B7803F00F03012101FA03F31B0406
:10355800DB43F96801F500611340CB63FB6803F5B1
:103568000063DA693B681B7803F00F03012101FA55
:1035780003F31B04DB43F96801F500611340CB61D9
:10358800BB685A01FB68134403F530631A68BB68CB
:103598005901FB680B4403F530631946054B13408A
:1035A8000B60002318461437BD465DF8047B70474E
:1035B800007833EC0078F3EF80B58AB002AFF8609A
:1035C800B9601346FB71FB68FB61BB681B78BB6184
:1035D800BB685B78012B40F07A81BB681B69002BC4
:1035E80032D1BB695A01FB69134403F510631B69A7
:1035F800BA695101FA690A4402F5106223F0FF53CF
:1036080023F4C0131361BB695A01FB69134403F522
:1036180010631B69BA695101FA690A4402F510621C
:1036280043F400231361BB695A01FB69134403F592
:1036380010631B69BA695101FA690A4402F51062FC
:10364800DB0CDB04136192E0BB695A01FB6913448C
:1036580003F510631B69BA695101FA690A4402F556
:103668001062DB0CDB041361BB695A01FB6913446C
:1036780003F510631B69BA695101FA690A4402F536
:10368800106223F0FF5323F4C0131361BB69002BAE
:103698001AD1BB681A69BB689B689A4203D9BB6890
:1036A8009A68BB681A61BB695A01FB69134403F540
:1036B80010631B69BA695101FA690A4402F510627C
:1036C80043F4002313611BE0BB695A01FB691344EF
:1036D80003F510631A69BB681969BB689B680B44DA
:1036E800591EBB689B68B1FBF3F3D904A24B0B408E
:1036F800B9694801F969014401F5106113430B6187
:10370800BB695A01FB69134403F510631A69BB6866
:103718001B69C3F31203B9694801F969014401F54A
:10372800106113430B61BB681B79012B1FD1BB6967
:103738005A01FB69134403F510631B69BA69510107
:10374800FA690A4402F5106223F0C0431361BB69A9
:103758005A01FB69134403F510631B69BA695101E7
:10376800FA690A4402F5106243F000531361FB79C9
:10377800012B4BD1BB68DB69002B09D0BB695A010F
:10378800FB69134403F510631A46BB68DB69536190
:10379800BB681B79012B28D1FB6903F500639B6883
:1037A80003F48073002B10D1BB695A01FB691344E1
:1037B80003F510631B68BA695101FA690A4402F5F6
:1037C800106243F0005313600FE0BB695A01FB69B4
:1037D800134403F510631B68BA695101FA690A4476
:1037E80002F5106243F080531360BB695A01FB690C
:1037F800134403F510631B68BA695101FA690A4456
:1038080002F5106243F00443136065E1BB695A0195
:10381800FB69134403F510631B68BA695101FA691F
:103828000A4402F5106243F004431360BB681B7935
:10383800012B15D0BB681B69002B00F04D81FB697B
:1038480003F500635A6BBB681B7803F00F03012173
:1038580001FA03F3F96901F5006113434B633BE196
:10386800FB6903F500639B6803F48073002B10D198
:10387800BB695A01FB69134403F510631B68BA69F5
:103888005101FA690A4402F5106243F000531360CB
:103898000FE0BB695A01FB69134403F510631B6809
:1038A800BA695101FA690A4402F5106243F080537B
:1038B8001360BB68D968BB681A78BB681B6998B283
:1038C800FB7900930346F86800F0B8F904E1BB6996
:1038D8005A01FB69134403F530631B69BA69510146
:1038E800FA690A4402F53062DB0CDB041361BB6938
:1038F8005A01FB69134403F530631B69BA69510126
:10390800FA690A4402F5306223F0FF5323F4C01326
:103918001361BB69002B31D1BB681B69002B03D035
:10392800BB689A68BB681A61BB689A68BB681A6208
:10393800BB695A01FB69134403F530631A69BB6814
:103948001B6AC3F31203B9694801F969014401F517
:10395800306113430B61BB695A01FB69134403F5DA
:1039680030631B69BA695101FA690A4402F5306289
:1039780043F40023136161E00000F81FBB681B6972
:10398800002B23D1BB695A01FB69134403F530634B
:103998001A69BB689B68C3F31203B9694801F969DE
:1039A800014401F5306113430B61BB695A01FB699E
:1039B800134403F530631B69BA695101FA690A4473
:1039C80002F5306243F40023136137E0BB681A69DB
:1039D800BB689B6813445A1EBB689B68B2FBF3F331
:1039E800FB82BB689B68FA8A03FB02F2BB681A6217
:1039F800BB695A01FB69134403F530631A69FB8AF2
:103A0800D904384B0B40B9694801F969014401F5FB
:103A1800306113430B61BB695A01FB69134403F519
:103A280030631A69BB681B6AC3F31203B96948019A
:103A3800F969014401F5306113430B61FB79012BEE
:103A48000DD1BB68DB68002B09D0BB68D968BB699E
:103A58005A01FB69134403F530630A465A61BB688F
:103A68001B79012B28D1FB6903F500639B6803F4DC
:103A78008073002B10D1BB695A01FB69134403F50D
:103A880030631B68BA695101FA690A4402F5306269
:103A980043F0005313600FE0BB695A01FB691344FC
:103AA80003F530631B68BA695101FA690A4402F5E3
:103AB800306243F080531360BB695A01FB691344B9
:103AC80003F530631B68BA695101FA690A4402F5C3
:103AD800306243F004431360002318462037BD4684
:103AE80080BD00BF0000F81F80B487B000AF7860C9
:103AF80039600023FB600023FB757B683B613B68F2
:103B08005B78012B4AD13B681B785A013B69134407
:103B180003F510631B6803F00043B3F1004F40F056
:103B280086803B681B785A013B69134403F5106390
:103B38001B683A68127851013A690A4402F5106222
:103B480043F0006313603B681B785A013B691344D8
:103B580003F510631B683A68127851013A690A4400
:103B680002F5106243F080431360FB680133FB6089
:103B7800FB6842F21072934202D90123FB7556E0AA
:103B88003B681B785A013B69134403F510631B68B3
:103B980003F00043B3F1004FE7D048E03B681B78DF
:103BA8005A013B69134403F530631B6803F0004373
:103BB800B3F1004F3BD13B681B785A013B69134472
:103BC80003F530631B683A68127851013A690A4470
:103BD80002F5306243F0006313603B681B785A01BA
:103BE8003B69134403F530631B683A681278510146
:103BF8003A690A4402F5306243F080431360FB6877
:103C08000133FB60FB6842F21072934202D9012330
:103C1800FB750CE03B681B785A013B69134403F5BC
:103C280030631B6803F00043B3F1004FE7D0FB7D1E
:103C380018461C37BD465DF8047B704780B489B0D0
:103C480000AFF860B96011461A460B46FB7113467F
:103C5800BB80FB687B61BB68FB6197F82830002B51
:103C680023D1BB8803339B083B610023BB6118E069
:103C7800FB791A037B69134403F580531A46FB69E1
:103C88001B681360FB690133FB61FB690133FB614E
:103C9800FB690133FB61FB690133FB61BB690133DC
:103CA800BB61BA693B699A42E2D3002318462437BC
:103CB800BD465DF8047B704780B48BB000AFF860F8
:103CC800B9601346FB80FB68BB61BB687B62FB88FD
:103CD8009B089BB27B61FB8803F00303FB830023F3
:103CE8003B6214E0BB6903F580531A687B6A1A606B
:103CF8007B6A01337B627B6A01337B627B6A0133B7
:103D08007B627B6A01337B623B6A01333B623A6ABE
:103D18007B699A42E6D3FB8B002B1ED000233B62C3
:103D2800BB6903F580531A4607F1100312681A603D
:103D38003A693B6ADBB2DB0022FA03F3DAB27B6A48
:103D48001A703B6A01333B627B6A01337B62FB8BEF
:103D5800013BFB83FB8B002BEAD17B6A18462C378F
:103D6800BD465DF8047B704780B485B000AF7860CD
:103D780039607B68FB603B681B78BB603B685B789D
:103D8800012B2CD1BB685A01FB68134403F510635F
:103D98001B68002B12DBBB68002B0FD0BB685A01D5
:103DA800FB68134403F510631B68BA685101FA688D
:103DB8000A4402F5106223F080431360BB685A017D
:103DC800FB68134403F510631B68BA685101FA686D
:103DD8000A4402F5106243F4001313602BE0BB6839
:103DE8005A01FB68134403F530631B68002B12DB90
:103DF800BB68002B0FD0BB685A01FB68134403F55E
:103E080030631B68BA685101FA680A4402F53062E7
:103E180023F080431360BB685A01FB68134403F521
:103E280030631B68BA685101FA680A4402F53062C7
:103E380043F400131360002318461437BD465DF899
:103E4800047B704780B485B000AF786039607B68C8
:103E5800FB603B681B78BB603B685B78012B28D113
:103E6800BB685A01FB68134403F510631B68BA6802
:103E78005101FA680A4402F5106223F40013136032
:103E88003B681B79032B03D03B681B79022B38D185
:103E9800BB685A01FB68134403F510631B68BA68D2
:103EA8005101FA680A4402F5106243F08053136026
:103EB80027E0BB685A01FB68134403F530631B68AD
:103EC800BA685101FA680A4402F5306223F4001313
:103ED80013603B681B79032B03D03B681B79022BCB
:103EE8000FD1BB685A01FB68134403F530631B68A4
:103EF800BA685101FA680A4402F5306243F0805307
:103F08001360002318461437BD465DF8047B7047DC
:103F180080B485B000AF78600B46FB707B68FB60AF
:103F2800FB6803F500631B68FA6802F5006223F476
:103F3800FE631360FB6803F500631A68FB781B01D6
:103F480003F4FE63F96801F5006113430B60002375
:103F580018461437BD465DF8047B704780B485B0B9
:103F680000AF78607B68FB60FB6803F560631B68E3
:103F7800FA6802F5606223F003031360FB6803F537
:103F880000635B68FA6802F5006223F0020353607D
:103F9800002318461437BD465DF8047B704780B48B
:103FA80085B000AF78607B68FB60FB6803F56063F1
:103FB8001B68FA6802F5606223F003031360FB686C
:103FC80003F500635B68FA6802F5006243F00203D8
:103FD8005360002318461437BD465DF8047B7047CC
:103FE80080B485B000AF78607B685B69FB607B68F4
:103FF8009B69FA681340FB60FB6818461437BD4696
:104008005DF8047B704780B485B000AF78607B684A
:10401800FB60FB6803F500639B69BB60FB6803F505
:104028000063DB69BA681340BB60BB681B0C1846A9
:104038001437BD465DF8047B704780B485B000AF87
:1040480078607B68FB60FB6803F500639B69BB6075
:10405800FB6803F50063DB69BA681340BB60BB68A3
:104068009BB218461437BD465DF8047B704780B490
:1040780085B000AF78600B46FB707B68FB60FB780F
:104088005A01FB68134403F530639B68BB60FB6807
:1040980003F500635B69BA681340BB60BB681846E8
:1040A8001437BD465DF8047B704780B487B000AF15
:1040B80078600B46FB707B687B617B6903F5006366
:1040C8001B693B617B6903F500635B6BFB60FB78F5
:1040D80003F00F03FA6822FA03F3DB01DBB23A6953
:1040E80013433B61FB785A017B69134403F5106362
:1040F8009B683A691340BB60BB6818461C37BD46CD
:104108005DF8047B704780B483B000AF78607B684B
:104118005B6903F0010318460C37BD465DF8047B64
:10412800704780B485B000AF78607B68FB60FB683F
:1041380003F510631B68FA6802F5106223F4FF6345
:1041480023F007031360FB6803F500635B68FA68F4
:1041580002F5006243F48073536000231846143755
:10416800BD465DF8047B704780B487B000AFF86047
:104178000B467A60FB72FB687B61FB683C33043357
:104188001B683B613B69264A93420AD97B6903F560
:1041980030631B6803F00043B3F1004F01D10023E3
:1041A80037E07B6903F530631A46002313617B69A6
:1041B80003F530631B697A6902F5306243F4002322
:1041C80013617B6903F530631B697A6902F5306214
:1041D80043F0180313617B6903F530631B697A693F
:1041E80002F5306243F0C0431361FB7A012B0FD113
:1041F8007B6903F530631A467B6853617B6903F575
:1042080030631B687A6902F5306243F080231360DB
:10421800002318461C37BD465DF8047B704700BF75
:104228000A30544F80B485B000AF78600023FB603B
:10423800FB680133FB60FB68B3F1706F01D903239E
:104248001BE07B681B69002BF2DA0023FB607B68AC
:104258001B6943F001027B681A61FB680133FB604C
:10426800FB68B3F1706F01D9032306E07B681B6913
:1042780003F00103012BF0D0002318461437BD4684
:104288005DF8047B7047000080B584B000AF7860AB
:104298000B46FB704FF4077002F092FCF860FB6865
:1042A800002B09D17B68D3F8D4227B68B032002177
:1042B80043F822100223D4E04FF407720021F86873
:1042C80002F0C2FC7B68D3F8D4227B68B032F9686C
:1042D80043F822107B68D3F8D4227B68B03253F8B5
:1042E80022207B68C3F8BC227B681B7C002B38D15A
:1042F8005E4B19784FF400730222786802F03DFB98
:104308005A4B1B7803F00F02796813469B0013443D
:104318009B000B44243301221A80554B19784FF423
:1043280000730222786802F028FB514B1B7803F0D7
:104338000F02796813469B0013449B000B4403F556
:10434800B27301221A804B4B1B7803F00F02796875
:1043580013469B0013449B000B44263310221A80FB
:1043680035E0424B197840230222786802F005FBB9
:104378003E4B1B7803F00F02796813469B001344E9
:104388009B000B44243301221A80394B19784023AF
:104398000222786802F0F1FA354B1B7803F00F021D
:1043A800796813469B0013449B000B4403F5B273D2
:1043B80001221A802F4B1B7803F00F0279681346ED
:1043C8009B0013449B000B44263310221A80294B70
:1043D800197808230322786802F0CFFA254B1B7856
:1043E80003F00F02796813469B0013449B000B44AB
:1043F800243301221A80FB680022C3F804227B6858
:10440800D3F8D4327A68B0339B0013445B681B68D6
:104418009847FB680022C3F81422FB680022C3F8FF
:104428001822FB68D3F80432002B01D1022318E0CC
:104438007B681B7C002B0AD10D4B1978FB68D3F8DD
:1044480004224FF40073786802F086FB08E0084BFA
:104458001978FB68D3F804224023786802F07CFBC3
:10446800002318461037BD4680BD00BFB3000020AA
:10447800B4000020B500002080B582B000AF78609D
:104488000B46FB703A4B1B781946786802F09BFA8A
:10449800374B1B7803F00F02796813469B001344CF
:1044A8009B000B44243300221A80324B1B78194698
:1044B800786802F088FA2F4B1B7803F00F027968AE
:1044C80013469B0013449B000B4403F5B273002270
:1044D8001A80294B1B781946786802F074FA264B23
:1044E8001B7803F00F02796813469B0013449B0066
:1044F8000B44243300221A801F4B1B7803F00F0251
:10450800796813469B0013449B000B442633002212
:104518001A807B68D3F8D4227B68B03253F82230F3
:10452800002B1FD07B68D3F8D4327A68B0339B0055
:1045380013445B685B6898477B68D3F8D4227B6830
:10454800B03253F82230184602F048FB7B68D3F8A3
:10455800D4227B68B032002143F822107B68002205
:10456800C3F8BC22002318460837BD4680BD00BFEB
:10457800B3000020B4000020B500002080B586B04C
:1045880000AF786039607B68D3F8D4227B68B0329A
:1045980053F822303B6100237B7300237B81002387
:1045A800FB753B69002B01D10323BFE03B681B78F7
:1045B80003F06003002B50D0202B40F0AF803B6805
:1045C800DB88002B3AD03B681B785BB2002B1BDAE8
:1045D8007B68D3F8D4327A68B0339B0013445B68A5
:1045E8009B683A68507839693A68D28898473B6836
:1045F800DB88072B28BF0723FB813B69FA8919460B
:10460800786801F087FD90E03B685A783B6983F849
:1046180000223B68DB883F2B03D83B68DB88DAB293
:1046280000E040223B6983F8012239693B6993F82D
:1046380001321A46786801F099FD76E07B68D3F874
:10464800D4327A68B0339B0013445B689B683A683D
:10465800507800223968984767E03B685B780B2BF5
:1046680051D801A252F823F0A14600081D470008BE
:104678000F4700080F4700080F4700080F470008BA
:104688000F4700080F4700080F4700080F470008AA
:10469800CB460008F54600087B6893F89C32DBB2ED
:1046A800032B07D107F10A0302221946786801F0A3
:1046B80031FD32E03968786801F0BBFC0323FB75F3
:1046C8002BE07B6893F89C32DBB2032B07D107F110
:1046D8000D0301221946786801F01CFD1DE03968B8
:1046E800786801F0A6FC0323FB7516E07B6893F855
:1046F8009C32DBB2032B0FD03968786801F099FC43
:104708000323FB7508E03968786801F092FC0323FD
:10471800FB7502E000BF08E000BF06E03968786872
:1047280001F087FC0323FB7500BFFB7D1846183793
:10473800BD4680BD80B584B000AF78600B46FB7085
:104748007B68D3F8C832FB607B68D3F8D4227B68D7
:10475800B03253F82230002B01D1032365E07B6887
:10476800D3F8D4227B68B03253F82230BB60FB7890
:1047780003F00F02796813469B0013449B000B4417
:1047880018331B68002B2FD0FB7803F00F027968D1
:1047980013469B0013449B000B4418331A68FB789C
:1047A80003F00F01F8680B46DB000B449B00034441
:1047B8001C331B68B2FBF3F101FB03F3D31A002B84
:1047C80012D1FB7803F00F02796813469B0013445B
:1047D8009B000B44183300221A60F978002300224A
:1047E800786802F098F91FE0BB680022C3F8142229
:1047F8007B68D3F8D4327A68B0339B0013445B6883
:104808001B69002B10D07B68D3F8D4327A68B03398
:104818009B0013445B681B69BA68D2F80802BA683F
:1048280002F50471FA789847002318461037BD46F8
:1048380080BD80B584B000AF78600B46FB707B68A4
:10484800D3F8D4227B68B03253F82230FB607B68FF
:10485800D3F8D4227B68B03253F82230002B01D130
:1048680003231AE0FB781946786802F096F90246A5
:10487800FB68C3F80C227B68D3F8D4327A68B0336B
:104888009B0013445B68DB68FA68D2F80402FA6894
:1048980002F5037211469847002318461037BD46A3
:1048A80080BD80B584B000AF78607B68D3F8D4222F
:1048B8007B68B03253F82230FB60FB68002B01D1D3
:1048C800032324E07B68D3F8D4327A68B0339B00A2
:1048D80013445B68002B19D0FB6893F80032FF2B58
:1048E80014D07B68D3F8D4327A68B0339B00134471
:1048F8005B689B68FA6892F80002F968FA6892F8AF
:1049080001229847FB68FF2283F8002200231846FB
:104918001037BD4680BD000080B586B000AF786016
:104928008221184800F04FFD78610121154800F0F8
:104938004AFD38618121134800F045FDF8607B6924
:10494800002B02D07B6910229A713B69002B06D09C
:104958003B69002242F040021A7100225A71FB683A
:10496800002B06D0FB68002242F040021A71002298
:104978005A717B6843221A80024B18461837BD4685
:1049880080BD00BF7000002080B586B000AF7860A1
:104998008221184800F017FD78610121154800F0C0
:1049A80012FD38618121134800F00DFDF8607B6924
:1049B800002B02D07B6910229A713B69002B06D02C
:1049C8003B6900221A71002242F002025A71FB6808
:1049D800002B06D0FB6800221A71002242F0020266
:1049E8005A717B6843221A80024B18461837BD4615
:1049F80080BD00BF7000002080B586B000AF786031
:104A08008221184800F0DFFC78610121154800F088
:104A1800DAFC38618121134800F0D5FCF8607B6925
:104A2800002B02D07B6910229A713B69002B06D0BB
:104A38003B69002242F040021A7100225A71FB6859
:104A4800002B06D0FB68002242F040021A710022B7
:104A58005A717B6843221A80024B18461837BD46A4
:104A680080BD00BF7000002080B483B000AF7860C4
:104A78007B680A221A80034B18460C37BD465DF83E
:104A8800047B70472C00002080B483B000AF7860AE
:104A980039603B68002B01D1032309E07B68D3F818
:104AA800D4327A68B0339B0013443A685A600023C2
:104AB80018460C37BD465DF8047B704780B487B054
:104AC80000AFF860B9607A60FB68D3F8D422FB685D
:104AD800B03253F822307B617B69002B01D103236C
:104AE80008E07B69BA68C3F808227B697A68C3F86A
:104AF8001022002318461C37BD465DF8047B70471A
:104B080080B485B000AF786039607B68D3F8D42270
:104B18007B68B03253F82230FB60FB68002B01D170
:104B2800032304E0FB683A68C3F80422002318460C
:104B38001437BD465DF8047B7047000080B584B02B
:104B480000AF78607B68D3F8D4227B68B03253F822
:104B58002230BB600123FB73BB68002B01D1032308
:104B680025E0BB68D3F81432002B1FD1BB680122A3
:104B7800C3F81422104B1B7803F00F02BB68D3F85C
:104B88001012786813469B0013449B0003441833A3
:104B98001960094B1978BB68D3F80822BB68D3F8A9
:104BA8001032786801F0B7FF0023FB73FB7B1846CF
:104BB8001037BD4680BD00BFB300002080B584B06B
:104BC80000AF78607B68D3F8D4227B68B03253F8A2
:104BD8002230FB607B68D3F8D4227B68B03253F86C
:104BE8002230002B01D1032318E07B681B7C002BAB
:104BF8000AD10C4B1978FB68D3F804224FF40073E0
:104C0800786801F0A9FF08E0064B1978FB68D3F82B
:104C180004224023786801F09FFF002318461037CC
:104C2800BD4680BDB400002080B586B000AFF860F6
:104C3800B9601346FB71FB68002B01D103231FE009
:104C4800FB680022C3F8B822FB680022C3F8C4221C
:104C5800FB680022C3F8D022BB68002B03D0FB6896
:104C6800BA68C3F8B422FB68012283F89C22FB6867
:104C7800FA791A70F86801F019FE0346FB75FB7D96
:104C880018461837BD4680BD80B584B000AF78603F
:104C980039600023FB813B68002B01D1032325E009
:104CA8007B683A68C3F8B8227B68D3F8D4227B685B
:104CB800AE3253F82230DB6A002B0FD07B68D3F872
:104CC800D4227B68AE3253F82230DB6A07F10E0239
:104CD8001046984702467B68C3F8D0227B68D3F811
:104CE800D8325A1C7B68C3F8D822002318461037DC
:104CF800BD4680BD80B582B000AF7860786801F0AD
:104D080021FE034618460837BD4680BD80B483B0EF
:104D180000AF7860002318460C37BD465DF8047B69
:104D2800704780B584B000AF78600B46FB700023F5
:104D3800FB737B68D3F8B832002B09D07B68D3F8B3
:104D4800B8321B68FA781146786898470346FB73AF
:104D5800FB7B18461037BD4680BD80B584B000AFD8
:104D680078600B46FB700023FB737B68D3F8B8327E
:104D78005B68FA781146786898470346002B01D09B
:104D88000323FB73FB7B18461037BD4680BD80B5F7
:104D980084B000AF786039607B6803F2AA23396871
:104DA800184601F00CF97B680122C3F894227B684D
:104DB800B3F8B0321A467B68C3F898227B6893F838
:104DC800AA3203F01F03022B1AD0022B22D8002B81
:104DD80002D0012B0AD01DE07B6803F2AA231946F2
:104DE800786800F063FB0346FB7320E07B6803F2FE
:104DF800AA231946786800F0CBFB0346FB7316E03C
:104E08007B6803F2AA231946786800F02DFC034654
:104E1800FB730CE07B6893F8AA3223F07F03DBB2C4
:104E28001946786801F0EEFD0346FB7300BFFB7B73
:104E380018461037BD4680BD80B586B000AFF86013
:104E48000B467A60FB720023FB75FB7A002B6ED150
:104E5800FB6803F5AA733B61FB68D3F89432032B14
:104E680040F098803B699A683B69DB689A4213D99D
:104E78003B699A683B69DB68D21A3B699A603B696F
:104E8800DA683B699B68934228BF13461A467968DB
:104E9800F86801F088F97DE0FB6893F8AA3203F01E
:104EA8001F03022B14D0022B1DD8002B02D0012B7C
:104EB80003D018E00023BB7518E0FB68B3F8AE32E6
:104EC800DBB21946F86800F064FA0346BB750DE0DA
:104ED800FB68B3F8AE32DBB21946F86800F066FA40
:104EE8000346BB7502E00023BB7500BFBB7D002BEA
:104EF80019D1FB6893F89C32DBB2032B13D1BA7D2E
:104F0800FB68AE3253F822301B69002B0BD0BA7DF8
:104F1800FB68C3F8D422BA7DFB68AE3253F822305E
:104F28001B69F8689847F86801F04EF932E0FB7A97
:104F380003F07F03DBB21946F86800F037FA03463E
:104F4800BB75BB7DFF2B25D0BB7D002B22D1FB6819
:104F580093F89C32DBB2032B17D1BA7DFB68AE32D3
:104F680053F822309B69002B0FD0BA7DFB68C3F839
:104F7800D422BA7DFB68AE3253F822309B69FA7AA4
:104F88001146F86898470346FB75FB7D002B01D056
:104F9800FB7D00E0002318461837BD4680BD80B56C
:104FA80086B000AFF8600B467A60FB72FB7A002B84
:104FB8006FD1FB6814333B61FB68D3F89432022B42
:104FC8005AD13B699A683B69DB689A4214D93B69B4
:104FD8009A683B69DB68D21A3B699A603B699B68AF
:104FE8001A467968F86801F0B0F800230022002119
:104FF800F86801F0B1FD3FE03B69DA683B699B68FE
:105008009A421CD13B695A683B69DB689A4216D3BD
:105018003B695A68FB68D3F898329A420FD200224B
:105028000021F86801F091F8FB680022C3F8982283
:10503800002300220021F86801F08EFD1CE0FB68C7
:1050480093F89C32DBB2032B0FD1FB68D3F8B8324C
:10505800DB68002B09D0FB680022C3F8D422FB6868
:10506800D3F8B832DB68F86898478021F86801F00F
:10507800C9FCF86801F0BBF8FB6893F8A032002B74
:105088003AD0F868FFF742FEFB68002283F8A022B6
:1050980032E0FB7A63F07F03DBB21946F86800F070
:1050A80085F90346FB75FB7DFF2B25D0FB7D002B87
:1050B80022D1FB6893F89C32DBB2032B1CD1FA7D1A
:1050C800FB68AE3253F822305B69002B14D0FA7DAE
:1050D800FB68C3F8D422FA7DFB68AE3253F822305D
:1050E8005B69FA7A1146F86898470346BB75BB7D39
:1050F800002B01D0BB7D00E0002318461837BD46C1
:1051080080BD80B584B000AF78600023FB737B68F6
:10511800012283F89C227B680022C3F894227B68D2
:1051280000225A607B680022C3F8A4227B68002210
:1051380083F8A0227B68D3F8B832002B14D07B68A0
:10514800D3F8B8325B68002B0ED07B68D3F8B8323E
:105158005B687A685268D2B2114678689847034605
:10516800002B01D00323FB73402300220021786821
:1051780001F003FC7B680122A3F864217B684022CC
:10518800C3F86021402300228021786801F0F5FBF4
:105198007B6801229A847B6840221A62FB7B18464E
:1051A8001037BD4680BD80B483B000AF78600B4631
:1051B800FB707B68FA781A74002318460C37BD46D2
:1051C8005DF8047B704780B483B000AF78607B687B
:1051D80093F89C32DBB2042B06D07B6893F89C32A0
:1051E800DAB27B6883F89D227B68042283F89C22CC
:1051F800002318460C37BD465DF8047B704780B421
:1052080083B000AF78607B6893F89C32DBB2042BE4
:1052180006D17B6893F89D32DAB27B6883F89C22CA
:10522800002318460C37BD465DF8047B704780B5EF
:1052380082B000AF78607B6893F89C32DBB2032BB6
:1052480010D17B68D3F8B832002B0BD07B68D3F829
:10525800B832DB69002B05D07B68D3F8B832DB693C
:1052680078689847002318460837BD4680BD80B542
:1052780082B000AF78600B46FB707B68D3F8D4220D
:105288007B68AE3253F82230002B01D103231CE097
:105298007B6893F89C32DBB2032B15D17B68D3F87B
:1052A800D4227B68AE3253F822301B6A002B0BD015
:1052B8007B68D3F8D4227B68AE3253F822301B6A5D
:1052C800FA78114678689847002318460837BD468B
:1052D80080BD80B582B000AF78600B46FB707B68FC
:1052E800D3F8D4227B68AE3253F82230002B01D198
:1052F80003231CE07B6893F89C32DBB2032B15D1A7
:105308007B68D3F8D4227B68AE3253F822305B6ACC
:10531800002B0BD07B68D3F8D4227B68AE3253F8CD
:1053280022305B6AFA781146786898470023184655
:105338000837BD4680BD80B483B000AF78600023D5
:1053480018460C37BD465DF8047B704780B584B0BD
:1053580000AF78600023FB737B68012283F89C22EE
:105368007B68D3F8B832002B0ED07B68D3F8B832FC
:105378005B687A685268D2B21146786898470346E3
:10538800002B01D00323FB73FB7B18461037BD4667
:1053980080BD80B483B000AF78600B46FB700023FB
:1053A80018460C37BD465DF8047B704780B483B05F
:1053B80000AF78600B46FB70002318460C37BD46DB
:1053C8005DF8047B704780B586B000AF78600B4607
:1053D800FB707B687B617B68FB6000233B61FB683B
:1053E8005B889BB2FA68127893421FD9FB681B78D6
:1053F8007B8113E007F10A031946786900F01BF86E
:1054080078617B695B78052B08D17B693B613B69D7
:105418009B78FA789A4208D000233B61FB685B8846
:105428009AB27B899A42E5D800E000BF3B691846EA
:105438001837BD4680BD80B485B000AF786039604C
:105448007B68FB603B681B88FA68127813449AB241
:105458003B681A80FB681B781A467B681344FB601C
:10546800FB6818461437BD465DF8047B704780B466
:1054780087B000AF78607B687B617B691B787B8233
:105488007B6901337B617B691B783B823B8A1B020A
:105498001AB2B7F9123013431BB2FB81FB891846C5
:1054A8001C37BD465DF8047B7047000080B584B0AA
:1054B80000AF786039600023FB733B681B7803F00A
:1054C8006003402B05D0402B57D8002B0FD0202B42
:1054D80053D17B68D3F8D4227B68AE3253F822309C
:1054E8009B683968786898470346FB734AE03B68CD
:1054F8005B78092B3BD801A252F823F059550008D4
:105508006D55000877550008635500087755000861
:10551800375500082D550008775500084F550008E5
:10552800415500083968786800F03CFA24E0396889
:10553800786800F0A1FB1FE03968786800F0E0FBAC
:105548000346FB7318E03968786800F083FC13E0C1
:105558003968786800F0B4FC0EE03968786800F0C3
:10556800E3FC09E03968786800F007FD04E0396871
:10557800786800F05EFD00BF04E03968786800F0E4
:1055880058FD00BFFB7B18461037BD4680BD00BFE5
:1055980080B584B000AF786039600023FB733B6846
:1055A8001B7803F06003402B05D0402B52D8002B0A
:1055B80001D0202B4ED17B6893F89C32DBB2013BA3
:1055C800022B40D83B689B88DBB2012B36D83B685E
:1055D8009B88DBB219467868FFF7DBFE0346BB738E
:1055E800BB7BFF2B1DD0BB7B002B1AD1BA7B7B6802
:1055F800AE3253F822309B68002B0FD0BA7B7B6801
:10560800C3F8D422BA7B7B68AE3253F822309B6849
:105618003968786898470346FB7304E00323FB73F3
:1056280001E00323FB733B68DB88002B10D1FB7B75
:10563800002B0DD1786800F0C7FD09E0396878685B
:1056480000F0F7FC04E03968786800F0F2FC00E04C
:1056580000BF04E03968786800F0EBFC00BFFB7B12
:1056680018461037BD4680BD80B584B000AF78605D
:1056780039600023FB733B689B88BB733B681B78CE
:1056880003F06003402B07D0402B00F27F81002BF2
:105698002AD0202B40F07A81BB7B19467868FFF727
:1056A80085FE03467B737B7BFF2B00F074817B7B3D
:1056B800002B40F070817A7B7B68C3F8D4227A7B18
:1056C8007B68AE3253F822309B68002B00F0638170
:1056D8007A7B7B68AE3253F822309B6839687868E9
:1056E80098470346FB7356E13B685B78032B08D069
:1056F800032B00F34581002B00F09B80012B3CD04D
:105708003EE17B6893F89C32DBB2022B02D0032B7C
:1057180016D02CE0BB7B002B0DD0BB7B802B0AD096
:10572800BB7B1946786801F06DF98021786801F033
:1057380069F900BF20E03968786800F07AFC1BE05E
:105748003B685B88002B0ED1BB7B002B0BD0BB7B4F
:10575800802B08D03B68DB88002B04D1BB7B194623
:10576800786801F04FF9786800F02EFD04E0396898
:10577800786800F05EFC00BF07E17B6893F89C3214
:10578800DBB2022B02D0032B16D04BE0BB7B002BE5
:105798000DD0BB7B802B0AD0BB7B1946786801F003
:1057A80031F98021786801F02DF900BF40E03968AF
:1057B800786800F03EFC3BE03B685B88002B36D104
:1057C800BB7B03F07F03002B04D0BB7B19467868B2
:1057D80001F037F9786800F0F7FCBB7B1946786868
:1057E800FFF7E4FD03467B737B7BFF2B1FD07B7B9E
:1057F800002B1CD17A7B7B68C3F8D4227A7B7B6828
:10580800AE3253F822309B68002B10D07A7B7B682D
:10581800AE3253F822309B68396878689847034657
:10582800FB7304E03968786800F003FC00E000BF0F
:10583800ABE07B6893F89C32DBB2022B02D0032BDF
:1058480032D097E0BB7B002B07D0BB7B802B04D0EA
:105858003968786800F0EDFB91E097F90E30002B7D
:105868000BDABB7B03F07F0213469B0013449B00BB
:1058780010337A68134404330BE0BB7B03F07F02D8
:1058880013469B0013449B0003F5A8737A681344DE
:105898000433BB60BB6800221A60BB680222194649
:1058A800786800F037FC6AE097F90E30002B11DABF
:1058B800BB7B03F00F02796813469B0013449B00DF
:1058C8000B4424331B88002B17D13968786800F003
:1058D800B0FB54E0BB7B03F00F02796813469B00D2
:1058E80013449B000B4403F5B2731B88002B04D1AF
:1058F8003968786800F09DFB41E097F90E30002B7D
:105908000BDABB7B03F07F0213469B0013449B001A
:1059180010337A68134404330BE0BB7B03F07F0237
:1059280013469B0013449B0003F5A8737A6813443D
:105938000433BB60BB7B002B02D0BB7B802B03D125
:10594800BB6800221A600EE0BB7B1946786801F03C
:1059580097F80346002B03D0BB6801221A6002E0C7
:10596800BB6800221A60BB6802221946786800F0FA
:10597800D1FB04E03968786800F05BFB00BF04E005
:105988003968786800F055FB00BF05E03968786829
:1059980000F04FFB00E000BFFB7B18461037BD4608
:1059A80080BD000080B584B000AF78603960002306
:1059B8003B810023FB600023FB723B685B881B0A6A
:1059C8009BB2013B062B00F2288101A252F823F07A
:1059D800F55900080D5A00084D5A0008235C0008C4
:1059E800235C0008C35B0008EF5B00087B68D3F802
:1059F800B4321B687A68127C07F108011046984790
:105A0800F86012E17B681B7C002B0DD17B68D3F812
:105A1800B8329B6A07F1080210469847F860FB689D
:105A2800013302221A7000E17B68D3F8B832DB6ACE
:105A380007F1080210469847F860FB680133022214
:105A48001A70F2E03B685B88DBB2052B00F2AC8091
:105A580001A252F823F000BF795A0008AD5A000895
:105A6800E15A0008155B0008495B00087D5B0008E7
:105A78007B68D3F8B4325B68002B0BD07B68D3F813
:105A8800B4325B687A68127C07F1080110469847BF
:105A9800F86091E03968786800F0CBFAFB7A013356
:105AA800FB7289E07B68D3F8B4329B68002B0BD07B
:105AB8007B68D3F8B4329B687A68127C07F10801D6
:105AC80010469847F86077E03968786800F0B1FACE
